:100000000C9466000C948E000C948E000C948E0060
:100010000C948E000C948E000C948E000C948E0028
:100020000C948E000C948E000C948E000C948E0018
:100030000C948E000C948E000C948E000C948E0008
:100040000C947B0A0C948E000C94620D0C94940D0D
:100050000C948E000C948E000C948E000C948E00E8
:100060000C941A070C948E00BD080809C208D30826
:10007000E408F50808090000000800020100000378
:100080000407000000000000000001020408102026
:10009000408001020408102001020408102004041A
:1000A0000404040404040202020202020303030320
:1000B000030300000000250028002B0000000000C2
:1000C000240027002A003006650AC40D11241FBE33
:1000D000CFEFD8E0DEBFCDBF11E0A0E0B1E0E0ECB3
:1000E000F5E202C005900D92A23EB107D9F723E0D8
:1000F000A2EEB1E001C01D92AF37B207E1F710E008
:10010000CCECD0E004C02297FE010E94B812C63C9D
:10011000D107C9F70E94080E0C94DE120C9400005F
:100120000895CF92DF92EF92FF92FC018589968924
:10013000481B590B61097109A389B4899A01AB0164
:100140000E94BC126B017C018FE0F594E794D79478
:10015000C7948A95D1F765857685882777FD809540
:10016000982F2BE0660F771F881F991F2A95D1F7CC
:1001700027853089442737FD4095542F2C0D3D1D90
:100180004E1D5F1D0E9497122C0D3D1D4E1D5F1DC3
:10019000CA01B901FF90EF90DF90CF9008951F93AF
:1001A000CF93DF931F92CDB7DEB7162F67E770E0CE
:1001B00082EE91E049830E94B405612F82EE91E0C6
:1001C0000E9461054981642F82EE91E00E946105E1
:1001D00082EE91E00F90DF91CF911F910C942D064C
:1001E000CF93C62F67E770E082EE91E00E94B405DE
:1001F0006C2F82EE91E00E94610582EE91E00E94F8
:100200002D0667E770E082EE91E00E94B40541E0C0
:1002100050E067E770E082EE91E00E942A0682EEED
:1002200091E00E941105C82F82EE91E00E942D06F8
:100230008C2FCF910895CF93DF93C62F67E770E09F
:1002400082EE91E00E94B4056C2F82EE91E00E9454
:10025000610582EE91E00E942D0667E770E082EE74
:1002600091E00E94B40542E050E067E770E082EE62
:1002700091E00E942A0682EE91E00E941105D82F9B
:1002800080E0C82F82EE91E00E941105C82BD92B87
:1002900082EE91E00E942D06CE01DF91CF9108956C
:1002A000CF93DF93EC01643008F063E0688382EE63
:1002B00091E00E94A00560EDCE010E94F00085351E
:1002C00009F044C06AEACE010E941B019A83898327
:1002D0006CEACE010E941B019C838B836EEACE01E7
:1002E0000E941B019E838D8360EBCE010E941B0147
:1002F0009A8B898B62EBCE010E941B019C8B8B8BAE
:1003000064EBCE010E941B019E8B8D8B66EBCE01B0
:100310000E941B0198878F8368EBCE010E941B010E
:100320009A8789876AEBCE010E941B019C878B8785
:100330006CEBCE010E941B019E878D876EEBCE0178
:100340000E941B01988B8F8781E001C080E0DF91C4
:10035000CF910895CF93DF93EC014EE264EF0E94BA
:10036000CF0065E070E080E090E00E94E80A66EF70
:10037000CE01DF91CF910C941B01CF93DF93EC0161
:100380000E94AA01AC0160E070E0CE010E949100E1
:10039000685F7F4F8F4F9F4F34E095958795779596
:1003A00067953A95D1F70E94361120E030E040E29F
:1003B00051E40E949B10DF91CF910895CF92DF927C
:1003C000EF92FF92CF93DF93EC0148814295440F67
:1003D000440F407C4C5C64EF0E94CF008881811107
:1003E00005C065E070E080E090E012C0813029F443
:1003F00068E070E080E090E00BC0823029F46EE0AD
:1004000070E080E090E004C06AE170E080E090E09D
:100410000E94E80A66EFCE010E941B016C01E12CEC
:10042000F12CFE2CED2CDC2CCC2468EFCE010E94AC
:10043000F000A7019601282BCA01B901488128E0E4
:1004400030E0241B310904C0969587957795679510
:100450002A95D2F7DF91CF91FF90EF90DF90CF9068
:1004600008952F923F924F925F926F927F928F9258
:100470009F92AF92BF92CF92DF92EF92FF920F9333
:100480001F93CF93DF93CDB7DEB72A970FB6F894BB
:10049000DEBF0FBECDBF9A8789870E94AA018C015B
:1004A00089859A850E94DE016D837E838F8398877C
:1004B000A80160E070E089859A850E9491004B0157
:1004C0005C0180EA881A8FE0980AA108B108A501AA
:1004D0009401C501B4010E9451122B013C010CE0B2
:1004E00075946794579447940A95D1F7A985BA856E
:1004F00011962D903C9012971C9115960D90BC91E1
:10050000A02D0E94C7126B017C018DE0F594E79449
:10051000D794C7948A95D1F7E985FA85A781B085E4
:10052000A30192010E94C712BB2797FDB095AB2F84
:10053000C80ED91EEA1EFB1EF2E0CF0ED11CE11C34
:10054000F11C32E0F594E794D794C7943A95D1F72B
:1005500080E8D80EE11CF11CE985FA85A189B289F1
:10056000A70196010E94BC12DC01CB014FE0B695B9
:10057000A795979587954A95D1F789839A83AB83F9
:10058000BC836101EE24D7FCE094FE2C52E0CC0C3D
:10059000DD1CEE1CFF1C5A95D1F7A185B285A30185
:1005A00092010E94C7122B013C016BE07594679485
:1005B000579447946A95D1F7A381B481A50194011A
:1005C0000E94C712EBE09595879577956795EA9518
:1005D000D1F7460E571E681E791EC40CD51CE61CAA
:1005E000F71C012E04C0CC0CDD1CEE1CFF1C0A9471
:1005F000D2F792E0C90ED11CE11CF11CC701B60173
:1006000024E030E040E050E00E9497128D819E810E
:10061000AF81B885821B930BA40BB50B9C01AD0178
:1006200060E573EC80E090E004C09695879577953F
:1006300067951A95D2F70E94511297FD0DC0660F6B
:10064000771F881F991F29813A814B815C810E9405
:10065000751249015A010CC029813A814B815C8194
:100660000E94751249015A01880C991CAA1CBB1CD6
:100670009927B7FC9A958B2D7A2D692D9B01AC019A
:100680000E9451129B01AC01AEEDBBE00E94BC1276
:100690006C01FF24D7FCF094EF2CA3E4B3EEA5018A
:1006A00094010E94CA12BB2797FDB095AB2FC80ECC
:1006B000D91EEA1EFB1E9FECC90E9EE0D91EE11C4E
:1006C000F11CA4E0F594E794D794C794AA95D1F7C8
:1006D000C80CD91CEA1CFB1CC701B6012A960FB630
:1006E000F894DEBF0FBECDBFDF91CF911F910F9168
:1006F000FF90EF90DF90CF90BF90AF909F908F9042
:100700007F906F905F904F903F902F900895CF9380
:10071000DF93EC0160E08E810E94E70B81E090E0C6
:100720000E94220B61E08E810E94E70B81E090E045
:100730000E94220B60E08E810E94E70B84E690E02D
:10074000DF91CF910C94220BEF92FF920F931F93A6
:10075000CF93DF938C01C0E0D0E0E62EF12CB701FF
:100760000C2E02C0759567950A94E2F76170F80146
:10077000EC0FFD1F87810E94E70B2196C430D10545
:1007800071F7C801DF91CF911F910F91FF90EF900A
:100790000C948703EF92FF920F931F93CF93DF93F5
:1007A0008C01C0E0D0E0E62EF12CB7010C2E02C087
:1007B000759567950A94E2F76170F801EC0FFD1FDB
:1007C00087810E94E70B2196C830D10571F7C801D7
:1007D000DF91CF911F910F91FF90EF900C948703C1
:1007E0001F93CF93DF93EC01162F642F8C810E940F
:1007F000E70B8D818F3F19F060E00E94E70B8F853A
:10080000612F84FF06C0CE01DF91CF911F910C9420
:10081000CA0370E084E0759567958A95E1F7CE018B
:100820000E94A403612FCE01DF91CF911F910C9400
:10083000A40340E00C94F00361E00E94190480EDF1
:1008400097E00C94220B443008F043E0FC0123892C
:10085000421710F04FEF420FFC01E40FF11D248905
:10086000260F2068622F0C941904FC016089262F42
:100870002460208B6C600C9419040F931F93CF930A
:10088000DF93EC01423018F08F8588608F874B8BA7
:100890001C8A80E48D8B6E8B70E0605C7F4F6F8B69
:1008A000222329F0413019F48F8584608F8761E01D
:1008B0008C810E94AE0B8D818F3F19F061E00E9408
:1008C000AE0B61E08E810E94AE0B00E010E08F85E0
:1008D00084FF03C088E090E002C084E090E0081745
:1008E000190754F4FE01E00FF11F61E087810E94B7
:1008F000AE0B0F5F1F4FEBCF80E593EC0E94220BF6
:1009000060E08C810E94E70B60E08E810E94E70B23
:100910008D818F3F19F060E00E94E70B6F8564FDC9
:100920001DC063E0CE010E94A40384E991E10E940E
:10093000220B63E0CE010E94A40384E991E10E94AE
:10094000220B63E0CE010E94A40386E990E00E949E
:10095000220B62E0CE010E94A40316C06062CE01A9
:100960000E94190484E991E10E94220B6F85606264
:10097000CE010E94190486E990E00E94220B6F8547
:100980006062CE010E9419046F856062CE010E94F0
:10099000190484E0888BCE010E943504CE010E94A8
:1009A0001C0482E0898B66E0CE01DF91CF911F911C
:1009B0000F910C941904CF92EF920F93FC011382C4
:1009C000128283E191E09183808364838FEF85833A
:1009D000468327830087E186C286138614861586A0
:1009E0001686178620E041E060E1CF010F91EF907D
:1009F000CF900C943D04FC016089262F2160208B50
:100A000069600C94190441E00E94F00381E090E0D9
:100A100008958091120290E020911302821B9109A7
:100A200008952091130280911202281750F4E22FAA
:100A3000F0E0EC5EFD4F808190E02F5F2093130289
:100A400008958FEF9FEF0895E091130280911202B5
:100A5000E81730F4F0E0EC5EFD4F808190E00895FF
:100A60008FEF9FEF08950895CF92DF92EF92FF925C
:100A70000F931F93CF93DF937C01CB018A012091C9
:100A8000EE01222389F0EB016B01C40ED51ECC15BB
:100A9000DD0569F06991D701ED91FC910190F0813C
:100AA000E02DC7010995F3CF642F0E94F106C8011C
:100AB000DF91CF911F910F91FF90EF90DF90CF903A
:100AC0000895CF93DF931F92CDB7DEB7698320914E
:100AD000EE012223D1F02091EF01203240F021E0FD
:100AE00030E0FC013383228380E090E015C08091E8
:100AF000F001E82FF0E0EF50FE4F998190838F5F77
:100B00008093F0018093EF0105C061E0CE01019672
:100B10000E94F10681E090E00F90DF91CF9108955F
:100B2000FC011382128248EE53E060E070E04483DF
:100B30005583668377838BE191E091838083089569
:100B400010921302109212021092F0011092EF0113
:100B50000C94340681E08093EE01609311021092B0
:100B6000F0011092EF0108950C94AA050F93062F3F
:100B700021E04091EF0161EF71E0809111020E944C
:100B80009A061092F0011092EF011092EE010F916F
:100B900008958F929F92AF92BF92CF92DF92EF9281
:100BA000FF920F931F93CF93DF93EC01F62ED42E79
:100BB00048015901EE2019F10E94AA051E2D14309A
:100BC00008F013E01150B8F0E881F98128E0129F95
:100BD000B0011124A501940104C05695479537959D
:100BE00027956A95D2F7CA01B9010190F081E02DED
:100BF000CE010995E7CF60E0CE010E94B6054D2DEC
:100C0000413208F040E22C2D64E172E08F2D0E9409
:100C100052061092130280931202DF91CF911F911E
:100C20000F91FF90EF90DF90CF90BF90AF909F908B
:100C30008F900895CF92EF920F931F93C22EE12CC5
:100C400000E010E098010E94C9051F910F91EF90FC
:100C5000CF90089521E00C941A0661E00C94B6053B
:100C600082EE91E00C9490051092A10281E08093B5
:100C70009F0210929E0261E082E10E94E70B61E018
:100C800083E10E94E70BE9EBF0E080818E7F8083B7
:100C900080818D7F808388E48093B80085E4809391
:100CA000BC000895413208F043C09091A102911117
:100CB000FCCF91E09093A10220939F022FEF20930D
:100CC000340210927902240F209378029093A002AC
:100CD0009091A002880F892B8093A00280919E02A0
:100CE000813061F410929E028091A0028093BB003B
:100CF0008091BC0083FDF8CF85EC01C085EE809328
:100D0000BC008091A1028130E1F3809179028417C7
:100D100010F4409179022AE732E0FB01D9018A2FD1
:100D2000821B841718F48D918193F9CF842F089535
:100D300080E008950F93413208F04AC09091A102DB
:100D40009111FCCF92E09093A10200939F029FEF3C
:100D5000909334021092790240937802FB016AE783
:100D600072E0DB019A2F961B941718F491919D93D2
:100D7000F9CF1092A0029091A002880F892B809346
:100D8000A00280919E02813061F410929E028091B7
:100D9000A0028093BB008091BC0083FDF8CF85EC5E
:100DA00001C085EE8093BC00222321F08091A10236
:100DB0008230E1F3809134028F3F61F08091340200
:100DC000803251F080913402803341F483E007C0D7
:100DD00081E005C080E003C082E001C084E00F91A3
:100DE0000895613298F42091A102243089F460932F
:100DF0005602FC0188E592E0DC012A2F281B261709
:100E000018F421912D93F9CF80E0089581E00895A1
:100E100082E0089585ED8093BC008091BC0084FD44
:100E2000FCCF1092A102089585EC8093BC00109233
:100E3000A10208951F920F920FB60F9211242F93C3
:100E40003F934F935F936F937F938F939F93AF9352
:100E5000BF93EF93FF938091B900887F803609F4A8
:100E60009EC078F5883209F45DC090F4803109F4B1
:100E700056C038F4882309F4F5C0883009F44FC00F
:100E8000F5C0883109F44EC0803209F45FC0EEC06D
:100E9000803409F46AC058F4803309F457C08833A9
:100EA00009F0E4C0809334020E941407DFC080354B
:100EB00009F44FC0883509F45DC0883409F0D6C004
:100EC000D3C0883909F4C4C0A8F4883709F467C0CE
:100ED00038F4883609F463C0803709F460C0C6C0AE
:100EE000883809F4B5C0803909F45FC0803809F04A
:100EF000BDC05BC0803B09F483C038F4803A09F47C
:100F000066C0883A09F47CC0B1C0803C09F4A4C032
:100F1000883C09F4A1C0883B09F487C0A7C0809130
:100F2000A00210C09091790280917802981770F514
:100F3000E091790281E08E0F80937902F0E0E6582B
:100F4000FD4F80818093BB0085EC83C08093340289
:100F50008BC0E091790281E08E0F809379028091BD
:100F6000BB00F0E0E658FD4F8083909179028091BC
:100F700078026BC0E091790281E08E0F8093790254
:100F80008091BB00F0E0E658FD4F808380919F0286
:100F900081116AC081E080939E0284EA5EC083E092
:100FA0008093A10210923502CFCF8091350280321A
:100FB00008F04EC0E091350281E08E0F809335023B
:100FC0008091BB00F0E0EA5CFD4F8083BDCF0E94C2
:100FD000140780913502803230F4E0913502F0E060
:100FE000EA5CFD4F10826091350270E0E0919A0258
:100FF000F0919B0286E392E009951092350236C08B
:1010000084E08093A1021092570210925602E09160
:101010009C02F0919D02099580915602811105C0B4
:1010200081E08093560210925802E091570281E0CD
:101030008E0F80935702F0E0E85AFD4F8081809335
:10104000BB009091570280915602981708F47CCF0C
:1010500085E88093BC000AC085EC8093BC001092A8
:10106000A10204C0109234020E940A07FF91EF917E
:10107000BF91AF919F918F917F916F915F914F91B0
:101080003F912F910F900FBE0F901F90189580E009
:101090000E94680B9093A7028093A60266E970E015
:1010A00080E090E00E94E80A8091A6029091A70259
:1010B000893E23E0920704F5823391058CF0833C4E
:1010C00091058CF08C3721E0920784F08B3222E07E
:1010D00092077CF0863193407CF488E690E0089596
:1010E00084E690E0089585E690E0089586E690E035
:1010F000089587E690E0089589E690E0089540E03D
:1011000060E081EC92E00E94230467E271E081ECF0
:1011100092E00E94550E40E063E081EC92E00E9474
:1011200023048AEA92E00E94BD01AB01BC0122E0E7
:1011300030E081EC92E00E941D1040E068E081EC1C
:1011400092E00E9423046FED81EC92E00E94570E22
:1011500040E069E081EC92E00E9423046BE271E0E0
:1011600081EC92E00C94550E8730910508F063C035
:10117000FC01EC5CFF4F0C94B6121092A30210928B
:10118000A20259C083E090E09093A3028093A20250
:101190008AEA92E00E9431020E94361120E030E09B
:1011A0004AE754E445C085E090E09093A302809321
:1011B000A2028AEA92E00E9431020E94361120E0E7
:1011C00030E543EC57E434C085E090E09093A3020F
:1011D0008093A2028AEA92E00E9431020E943611B4
:1011E0002CEB37EC45EF5BE310C087E090E0909389
:1011F000A3028093A2028AEA92E00E9431020E9436
:10120000361128E034E945E257E30E94EA110895D7
:1012100082E090E09093A3028093A2028AEA92E097
:101220000E9431020E94361120E030E048EC52E486
:101230000E949B1008958AEA92E00E9431020E9467
:10124000361108950F931F93CF93DF93EC018B0119
:1012500041E060E081EC92E00E9423046DE271E0E5
:1012600081EC92E00E94550E41E063E081EC92E057
:101270000E942304CE010E94B408AB01BC01980176
:1012800081EC92E00E941D1041E06CE081EC92E064
:101290000E942304FE01EE0FFF1FE050FF4F60810C
:1012A000718181EC92E0DF91CF911F910F910C94AD
:1012B000550E0F931F93CF93DF9341E060E081ECD5
:1012C00092E00E94230461E371E081EC92E00E94CD
:1012D000550E40E060E081EC92E00E94230460E45F
:1012E00071E081EC92E00E94550E40E06BE081ECF1
:1012F00092E00E942304E091A402F091A502EE0F77
:10130000FF1FE050FF4F6081718181EC92E00E94ED
:10131000550E81EC92E00E94FB04C7E0D0E006E0AD
:1013200010E00E9447089093A9028093A802853696
:10133000910521F08636910539F02DC08091A402E7
:101340009091A50201960CC08091A4029091A502F3
:10135000009729F41093A5020093A40208C00197F6
:10136000BE010E9461129093A5028093A40240E006
:101370006BE081EC92E00E942304E091A402F091E2
:10138000A502EE0FFF1FE050FF4F6081718181ECDD
:1013900092E00E94550E8091A8029091A902883691
:1013A000910509F0BECF40E060E081EC92E00E9440
:1013B00023046CE471E081EC92E00E94550EE09110
:1013C000A402F091A502EE0FFF1FE050FF4F6081D5
:1013D000718181EC92E00E94550E41E060E081EC69
:1013E00092E00E94230469E571E081EC92E00E94A2
:1013F000550E68EB7BE080E090E0DF91CF911F918C
:101400000F910C94E80A20E042E060E181EC92E068
:101410000E943D0426E040E855E260E070E082EE84
:1014200092E00E94000D4AE050E06EE070E082EE33
:1014300092E00E942C0F63E08AEA92E00E94500141
:10144000811106C06AE671E082EE92E00E94620EAF
:101450000E94590981EC92E00C941C048AEA92E003
:101460000E943102AB01BC012AE030E082EE92E042
:101470000E940D0F8091A4029091A5020E94B408D1
:10148000AB01BC0122E030E082EE92E00E941F102E
:101490000E9447089093A9028093A802873691057D
:1014A00011F40E94030A0E947F086091A2027091C9
:1014B000A3028091A4029091A5020E94220968EEE5
:1014C00073E080E090E00C94E80ACF92EF920F93E3
:1014D00047E0C42E56E0E52E05E024E049E068E050
:1014E00081EC92E00E94DB048AEA92E00F91EF9097
:1014F000CF900C9490001F920F920FB60F92112470
:101500002F933F938F939F93AF93BF938091DA0272
:101510009091DB02A091DC02B091DD023091D90202
:1015200023E0230F2D3720F40196A11DB11D05C026
:1015300026E8230F0296A11DB11D2093D9028093A6
:10154000DA029093DB02A093DC02B093DD0280917B
:10155000DE029091DF02A091E002B091E1020196DB
:10156000A11DB11D8093DE029093DF02A093E002E3
:10157000B093E102BF91AF919F918F913F912F91D5
:101580000F900FBE0F901F9018953FB7F894809161
:10159000DE029091DF02A091E002B091E10226B557
:1015A000A89B05C02F3F19F00196A11DB11D3FBF9B
:1015B0006627782F892F9A2F620F711D811D911D2B
:1015C00042E0660F771F881F991F4A95D1F708954B
:1015D0008F929F92AF92BF92CF92DF92EF92FF9243
:1015E0006B017C010E94C50A4B015C01C114D1044E
:1015F000E104F104F1F00E9431100E94C50A68195B
:1016000079098A099B09683E73408105910570F349
:1016100021E0C21AD108E108F10888EE880E83E0C3
:10162000981EA11CB11CC114D104E104F10429F7D6
:10163000DDCFFF90EF90DF90CF90BF90AF909F9065
:101640008F9008958230910538F0880F991F880F88
:10165000991F05970197F1F70895789484B58260F2
:1016600084BD84B5816084BD85B5826085BD85B546
:10167000816085BDEEE6F0E0808181608083E1E8F5
:10168000F0E010828081826080838081816080832D
:10169000E0E8F0E0808181608083E1EBF0E0808130
:1016A00084608083E0EBF0E0808181608083EAE702
:1016B000F0E080818460808380818260808380818B
:1016C000816080838081806880831092C10008954A
:1016D0008E3008F08E50877020910E0190E4299F83
:1016E00090011124822B80937C0080917A00806489
:1016F00080937A0080917A0086FDFCCF80917800FB
:101700002091790090E0922B0895833081F028F4A5
:10171000813099F08230A1F008958730A9F08830A7
:10172000B9F08430D1F4809180008F7D03C0809126
:1017300080008F7780938000089584B58F7702C0F2
:1017400084B58F7D84BD08958091B0008F7703C0EC
:101750008091B0008F7D8093B0000895CF93DF9388
:1017600090E0FC01E657FF4F2491FC01E256FF4F49
:101770008491882349F190E0880F991FFC01E4547B
:10178000FF4FA591B4918E549F4FFC01C591D49108
:101790009FB7611108C0F8948C91209582238C9397
:1017A000888182230AC0623051F4F8948C91322FE0
:1017B000309583238C938881822B888304C0F8948E
:1017C0008C91822B8C939FBFDF91CF9108950F93C3
:1017D0001F93CF93DF931F92CDB7DEB7282F30E052
:1017E000F901EA58FF4F8491F901E657FF4F149130
:1017F000F901E256FF4F04910023C9F0882321F03C
:1018000069830E94850B6981E02FF0E0EE0FFF1FD6
:10181000EE54FF4FA591B4919FB7F8948C9161114C
:1018200003C01095812301C0812B8C939FBF0F9023
:10183000DF91CF911F910F910895FC01818D228D31
:1018400090E0805C9F4F821B91098F7399270895C8
:10185000FC01918D828D981731F0828DE80FF11D7A
:10186000858D90E008958FEF9FEF0895FC01918D95
:10187000828D981761F0828DDF01A80FB11D5D96F2
:101880008C91928D9F5F9F73928F90E008958FEF60
:101890009FEF08958AEB9DE0892B49F080E090E06E
:1018A000892B29F00E94BA0D81110C940000089533
:1018B000FC01848DDF01A80FB11DA35ABF4F2C91ED
:1018C000848D90E001968F739927848FA689B789BC
:1018D0002C93A089B1898C9180648C93938D848D95
:1018E000981306C00288F389E02D80818F7D808364
:1018F0000895CF93DF93EC01888D8823C9F0EA899E
:10190000FB89808185FD05C0A889B9898C9186FDF8
:101910000FC00FB607FCF5CF808185FFF2CFA889F5
:10192000B9898C9185FFEDCFCE010E94580CE7CF8D
:10193000DF91CF910895CF92DF92FF920F931F9383
:10194000CF93DF931F92CDB7DEB76C0181E0D60154
:1019500058968C9358975B969C915B975C968C916C
:101960005C97981307C05096ED91FC915197808138
:1019700085FD2EC0F601038D10E00F5F1F4F0F7322
:101980001127F02EF601848DF81211C00FB607FC56
:10199000F9CFD6015096ED91FC915197808185FF4A
:1019A000F1CFC60169830E94580C6981EBCF838D0A
:1019B000E80FF11DE35AFF4F6083D6015B960C934D
:1019C0005B975296ED91FC915397808180620CC099
:1019D000D6015696ED91FC91579760835096ED9104
:1019E000FC91519780818064808381E090E00F902A
:1019F000DF91CF911F910F91FF90DF90CF900895CD
:101A0000BF92CF92DF92EF92FF92CF93DF93EC01E0
:101A10006A017B01B22EE889F98982E08083411551
:101A200081EE580761057105A1F060E079E08DE372
:101A300090E0A70196010E947512215031094109D9
:101A400051095695479537952795211580E1380717
:101A500098F0E889F989108260E874E88EE190E0F6
:101A6000A70196010E9475122150310941095109BF
:101A70005695479537952795EC85FD853083EE85FE
:101A8000FF852083188EEC89FD89B082EA89FB8965
:101A9000808180618083EA89FB898081886080837E
:101AA000EA89FB89808180688083EA89FB8980815B
:101AB0008F7D8083DF91CF91FF90EF90DF90CF906B
:101AC000BF9008951F920F920FB60F9211242F937B
:101AD0008F939F93EF93FF93E091F202F091F302C3
:101AE0008081E091F802F091F90282FD12C09081AC
:101AF0008091FB028F5F8F732091FC02821751F05F
:101B0000E091FB02F0E0EE51FD4F958F8093FB02D8
:101B100001C08081FF91EF919F918F912F910F9044
:101B20000FBE0F901F9018951F920F920FB60F9235
:101B300011242F933F934F935F936F937F938F93D2
:101B40009F93AF93BF93EF93FF9382EE92E00E9437
:101B5000580CFF91EF91BF91AF919F918F917F9121
:101B60006F915F914F913F912F910F900FBE0F900A
:101B70001F90189582EE92E00E941D0C21E0892BA7
:101B800009F420E0822F08951092E5021092E402F9
:101B900088EE93E0A0E0B0E08093E6029093E70245
:101BA000A093E802B093E90285EC91E09093E30200
:101BB0008093E20285EC90E09093EF028093EE0236
:101BC00084EC90E09093F1028093F00280EC90E03E
:101BD0009093F3028093F20281EC90E09093F502EF
:101BE0008093F40282EC90E09093F7028093F602E7
:101BF00086EC90E09093F9028093F8021092FB0239
:101C00001092FC021092FD021092FE0208950895B7
:101C10000E942D0B0E94070E0E94030ACAE4DCE01A
:101C20000E942E0A2097E1F30E944A0CF9CFCF922E
:101C3000DF92EF92FF920F931F93CF93DF937C017C
:101C40006A01EB0100E010E00C151D0571F06991CF
:101C5000D701ED91FC910190F081E02DC70109952C
:101C6000892B19F00F5F1F4FEFCFC801DF91CF9184
:101C70001F910F91FF90EF90DF90CF900895611525
:101C8000710581F0DB010D900020E9F7AD014150B5
:101C90005109461B570BDC01ED91FC910280F38149
:101CA000E02D099480E090E008950C943F0EDC0153
:101CB000ED91FC910190F081E02D099461ED71E0CE
:101CC0000C943F0E0F931F93CF93DF93EC010E9470
:101CD0003F0E8C01CE010E945E0E800F911FDF919E
:101CE000CF911F910F9108958F929F92AF92BF92C3
:101CF000DF92EF92FF920F931F93CF93DF93CDB7B5
:101D0000DEB7A1970FB6F894DEBF0FBECDBF7C0142
:101D1000F42FD52ECB0119A2223008F42AE08E012F
:101D20000F5D1F4F822E912CA12CB12C6F2F7D2D7A
:101D3000A50194010E947512F22FD32ECA01015001
:101D400011096A3014F4E0E301C0E7E3E60FD801BB
:101D5000EC93232B242B252B49F7B801C7010E94B4
:101D60003F0EA1960FB6F894DEBF0FBECDBFDF9138
:101D7000CF911F910F91FF90EF90DF90BF90AF90A8
:101D80009F908F900895CF92DF92EF92FF920F93E2
:101D90001F93CF93DF93EC016A017B01211531057D
:101DA00079F4E881F9810190F081E02D642FDF91D1
:101DB000CF911F910F91FF90EF90DF90CF900994FA
:101DC0002A303105E9F477FF1AC06DE20E94570E00
:101DD0008C0144275527BA014C195D096E097F090A
:101DE0002AE0CE010E94740E800F911FDF91CF91E7
:101DF0001F910F91FF90EF90DF90CF9008952AE010
:101E0000B701A601CE01DF91CF911F910F91FF90F5
:101E1000EF90DF90CF900C94740E0F931F93CF939D
:101E2000DF93EC010E94C30E8C01CE010E945E0E76
:101E3000800F911FDF91CF911F910F910895211570
:101E4000310541F4DC01ED91FC910190F081E02D30
:101E5000642F09940C94740E9A01AB0160E070E059
:101E60000C941F0F4F925F926F927F928F929F926E
:101E7000AF92BF92CF92DF92EF92FF920F931F9398
:101E8000CF93DF93EC016A017B01B22E9A01AB0183
:101E9000C701B6010E944D12882319F064ED71E06C
:101EA00027C026013701E89477F82FEF3FEF4FE77F
:101EB0005FE7C301B2010E944D1281110DC02FEFE7
:101EC0003FEF4FE75FE7C301B2010E94971018167A
:101ED0001CF468ED71E00CC02FEF3FEF4FE75FE4BB
:101EE000C701B6010E94E6111816ACF46CED71E062
:101EF000CE01DF91CF911F910F91FF90EF90DF9076
:101F0000CF90BF90AF909F908F907F906F905F9099
:101F10004F900C943F0E2FEF3FEF4FE75FECC70160
:101F2000B6010E94971087FDE1CF20E030E0A901C3
:101F3000C701B6010E94971087FF0AC06DE2CE016B
:101F40000E94570E8C01F7FAF094F7F8F09402C053
:101F500000E010E0A12C60E070E080E09FE3AB14B3
:101F600041F020E030E040E251E40E949B10A39455
:101F7000F6CF9B01AC01C701B6010E9433106B0183
:101F80007C010E9408112B013C010E9434119B012D
:101F9000AC01C701B6010E9432106B017C012AE03E
:101FA000B301A201CE010E94740E080F191FBB20BD
:101FB00039F060EE71E0CE010E943F0E080F191F4C
:101FC0007B2C772041F120E030E040E251E4C70172
:101FD000B6010E94EA116B017C010E9403114B01C2
:101FE000AA2497FCA094BA2C2AE030E0B501A40101
:101FF000CE010E94C30E080F191FC501B4010E9433
:1020000036119B01AC01C701B6010E9432106B0171
:102010007C017A94D6CFC801DF91CF911F910F91A7
:10202000FF90EF90DF90CF90BF90AF909F908F90F8
:102030007F906F905F904F9008950C94320F0F93A4
:102040001F93CF93DF93EC010E94320F8C01CE01DE
:102050000E945E0E800F911FDF91CF911F910F9113
:10206000089508955058BB27AA270ED075C166D190
:1020700030F06BD120F031F49F3F11F41EF45BC1BE
:102080000EF4E095E7FB51C1E92F77D180F3BA1741
:10209000620773078407950718F071F49EF58FC1E6
:1020A0000EF4E0950B2EBA2FA02D0B01B901900173
:1020B0000C01CA01A0011124FF27591B99F0593FB7
:1020C00050F4503E68F11A16F040A22F232F342FFF
:1020D0004427585FF3CF469537952795A795F0404D
:1020E0005395C9F77EF41F16BA0B620B730B840B62
:1020F000BAF09150A1F0FF0FBB1F661F771F881F1A
:10210000C2F70EC0BA0F621F731F841F48F4879571
:1021100077956795B795F7959E3F08F0B3CF939560
:10212000880F08F09927EE0F979587950895D9D0D5
:1021300008F481E008950CD00FC107D140F0FED023
:1021400030F021F45F3F19F0F0C0511139C1F3C0F4
:1021500014D198F39923C9F35523B1F3951B550B6B
:10216000BB27AA2762177307840738F09F5F5F4F6A
:10217000220F331F441FAA1FA9F333D00E2E3AF0AB
:10218000E0E830D091505040E695001CCAF729D0C5
:10219000FE2F27D0660F771F881FBB1F2617370714
:1021A0004807AB07B0E809F0BB0B802DBF01FF2744
:1021B00093585F4F2AF09E3F510568F0B6C000C1AA
:1021C0005F3FECF3983EDCF3869577956795B7957E
:1021D000F7959F5FC9F7880F911D9695879597F999
:1021E0000895E1E0660F771F881FBB1F6217730712
:1021F0008407BA0720F0621B730B840BBA0BEE1F27
:1022000088F7E095089504D06894B111D9C0089575
:10221000BCD088F09F5790F0B92F9927B751A0F004
:10222000D1F0660F771F881F991F1AF0BA95C9F76A
:1022300012C0B13081F0C3D0B1E00895C0C0672FA3
:10224000782F8827B85F39F0B93FCCF3869577951A
:102250006795B395D9F73EF4909580957095619503
:102260007F4F8F4F9F4F0895E89409C097FB3EF42E
:1022700090958095709561957F4F8F4F9F4F9923D3
:10228000A9F0F92F96E9BB279395F6958795779551
:102290006795B795F111F8CFFAF4BB0F11F460FF11
:1022A0001BC06F5F7F4F8F4F9F4F16C0882311F069
:1022B00096E911C0772321F09EE8872F762F05C07D
:1022C000662371F096E8862F70E060E02AF09A9518
:1022D000660F771F881FDAF7880F9695879597F90D
:1022E0000895990F0008550FAA0BE0E8FEEF1616A7
:1022F0001706E807F907C0F012161306E407F507FA
:1023000098F0621B730B840B950B39F40A2661F06D
:10231000232B242B252B21F408950A2609F4A14010
:10232000A6958FEF811D811D089597F99F6780E81D
:1023300070E060E008959FEF80EC089500240A9417
:102340001616170618060906089500240A94121690
:102350001306140605060895092E0394000C11F4C3
:10236000882352F0BB0F40F4BF2B11F460FF04C070
:102370006F5F7F4F8F4F9F4F089557FD9058440FC9
:10238000551F59F05F3F71F04795880F97FB991FD4
:1023900061F09F3F79F08795089512161306140691
:1023A000551FF2CF4695F1DF08C01616170618061E
:1023B000991FF1CF86957105610508940895E894F9
:1023C000BB2766277727CB0197F908958ADF08F4A2
:1023D0008FEF08950BD0C0CFB1DF28F0B6DF18F033
:1023E000952309F0A2CFA7CF1124EACFC6DFA0F32F
:1023F000959FD1F3950F50E0551F629FF001729F9A
:10240000BB27F00DB11D639FAA27F00DB11DAA1FB8
:10241000649F6627B00DA11D661F829F2227B00D05
:10242000A11D621F739FB00DA11D621F839FA00D90
:10243000611D221F749F3327A00D611D231F849FE0
:10244000600D211D822F762F6A2F11249F57504037
:102450008AF0E1F088234AF0EE0FFF1FBB1F661FD2
:10246000771F881F91505040A9F79E3F510570F08B
:102470005CCFA6CF5F3FECF3983EDCF38695779573
:102480006795B795F795E7959F5FC1F7FE2B880F86
:10249000911D9695879597F9089523DF880B990BE1
:1024A0000895DB018F939F930E94BC12BF91AF915F
:1024B000A29F800D911DA39F900DB29F900D11249E
:1024C0000895AA1BBB1B51E107C0AA1FBB1FA6177B
:1024D000B70710F0A61BB70B881F991F5A95A9F7CD
:1024E00080959095BC01CD010895A1E21A2EAA1BFA
:1024F000BB1BFD010DC0AA1FBB1FEE1FFF1FA217B4
:10250000B307E407F50720F0A21BB30BE40BF50BB0
:10251000661F771F881F991F1A9469F76095709539
:10252000809590959B01AC01BD01CF010895052ECA
:1025300097FB1EF400940E94AE1257FD07D00E9434
:10254000751207FC03D04EF40C94AE1250954095D2
:10255000309521953F4F4F4F5F4F0895909580954F
:10256000709561957F4F8F4F9F4F0895EE0FFF1F1E
:102570000590F491E02D09940E94CF12A59F900D33
:10258000B49F900DA49F800D911D11240895B7FF55
:102590000C94BC120E94BC12821B930B0895A29F44
:1025A000B001B39FC001A39F700D811D1124911D27
:1025B000B29F700D811D1124911D0895F894FFCFD5
:1025C0009E01A301A801AD01B201B701BC01010048
:1025D0000000000305170E00000000610534050926
:1025E00005110524053305543D20004300503D20CE
:1025F00000555020444F574E2053454C45435400FE
:10260000536574757020756E69743A00556E6974FF
:1026100043686F6F73656E3A0020554E49542053DE
:10262000454C4543544544202000436F756C64205D
:102630006E6F742066696E6420612076616C6964D7
:1026400020424D503038352073656E736F722C20E8
:10265000636865636B20776972696E6721005061FA
:1026600020200068506120006B5061200062617280
:1026700020006D6D48670061746D20006D626172AD
:1026800000000000009B0C170E1D0C360C280C7966
:102690000C0D0A006E616E00696E66006F76660052
:0226A0002E000A
:00000001FF
